{
  "_format": "hh-sol-artifact-1",
  "contractName": "AcademicIdentity",
  "sourceName": "contracts/AcademicIdentity.sol",
  "abi": [
    {
      "inputs": [],
      "stateMutability": "nonpayable",
      "type": "constructor"
    },
    {
      "inputs": [
        {
          "internalType": "address",
          "name": "owner",
          "type": "address"
        }
      ],
      "name": "OwnableInvalidOwner",
      "type": "error"
    },
    {
      "inputs": [
        {
          "internalType": "address",
          "name": "account",
          "type": "address"
        }
      ],
      "name": "OwnableUnauthorizedAccount",
      "type": "error"
    },
    {
      "anonymous": false,
      "inputs": [
        {
          "indexed": true,
          "internalType": "bytes32",
          "name": "certId",
          "type": "bytes32"
        },
        {
          "indexed": false,
          "internalType": "string",
          "name": "ipfsHash",
          "type": "string"
        },
        {
          "indexed": true,
          "internalType": "address",
          "name": "institution",
          "type": "address"
        },
        {
          "indexed": true,
          "internalType": "address",
          "name": "student",
          "type": "address"
        }
      ],
      "name": "CertificateIssued",
      "type": "event"
    },
    {
      "anonymous": false,
      "inputs": [
        {
          "indexed": true,
          "internalType": "bytes32",
          "name": "certId",
          "type": "bytes32"
        }
      ],
      "name": "CertificateRevoked",
      "type": "event"
    },
    {
      "anonymous": false,
      "inputs": [
        {
          "indexed": true,
          "internalType": "address",
          "name": "institution",
          "type": "address"
        }
      ],
      "name": "InstitutionAuthorized",
      "type": "event"
    },
    {
      "anonymous": false,
      "inputs": [
        {
          "indexed": true,
          "internalType": "address",
          "name": "institution",
          "type": "address"
        }
      ],
      "name": "InstitutionDeauthorized",
      "type": "event"
    },
    {
      "anonymous": false,
      "inputs": [
        {
          "indexed": true,
          "internalType": "address",
          "name": "previousOwner",
          "type": "address"
        },
        {
          "indexed": true,
          "internalType": "address",
          "name": "newOwner",
          "type": "address"
        }
      ],
      "name": "OwnershipTransferred",
      "type": "event"
    },
    {
      "inputs": [
        {
          "internalType": "address",
          "name": "_institution",
          "type": "address"
        }
      ],
      "name": "authorizeInstitution",
      "outputs": [],
      "stateMutability": "nonpayable",
      "type": "function"
    },
    {
      "inputs": [
        {
          "internalType": "address",
          "name": "",
          "type": "address"
        }
      ],
      "name": "authorizedInstitutions",
      "outputs": [
        {
          "internalType": "bool",
          "name": "",
          "type": "bool"
        }
      ],
      "stateMutability": "view",
      "type": "function"
    },
    {
      "inputs": [
        {
          "internalType": "bytes32",
          "name": "",
          "type": "bytes32"
        }
      ],
      "name": "certificates",
      "outputs": [
        {
          "internalType": "string",
          "name": "ipfsHash",
          "type": "string"
        },
        {
          "internalType": "address",
          "name": "institution",
          "type": "address"
        },
        {
          "internalType": "address",
          "name": "student",
          "type": "address"
        },
        {
          "internalType": "uint256",
          "name": "issueDate",
          "type": "uint256"
        },
        {
          "internalType": "bool",
          "name": "isValid",
          "type": "bool"
        }
      ],
      "stateMutability": "view",
      "type": "function"
    },
    {
      "inputs": [
        {
          "internalType": "address",
          "name": "_institution",
          "type": "address"
        }
      ],
      "name": "deauthorizeInstitution",
      "outputs": [],
      "stateMutability": "nonpayable",
      "type": "function"
    },
    {
      "inputs": [
        {
          "internalType": "bytes32",
          "name": "_certId",
          "type": "bytes32"
        },
        {
          "internalType": "string",
          "name": "_ipfsHash",
          "type": "string"
        },
        {
          "internalType": "address",
          "name": "_student",
          "type": "address"
        }
      ],
      "name": "issueCertificate",
      "outputs": [],
      "stateMutability": "nonpayable",
      "type": "function"
    },
    {
      "inputs": [],
      "name": "owner",
      "outputs": [
        {
          "internalType": "address",
          "name": "",
          "type": "address"
        }
      ],
      "stateMutability": "view",
      "type": "function"
    },
    {
      "inputs": [],
      "name": "renounceOwnership",
      "outputs": [],
      "stateMutability": "nonpayable",
      "type": "function"
    },
    {
      "inputs": [
        {
          "internalType": "bytes32",
          "name": "_certId",
          "type": "bytes32"
        }
      ],
      "name": "revokeCertificate",
      "outputs": [],
      "stateMutability": "nonpayable",
      "type": "function"
    },
    {
      "inputs": [
        {
          "internalType": "address",
          "name": "newOwner",
          "type": "address"
        }
      ],
      "name": "transferOwnership",
      "outputs": [],
      "stateMutability": "nonpayable",
      "type": "function"
    },
    {
      "inputs": [
        {
          "internalType": "bytes32",
          "name": "_certId",
          "type": "bytes32"
        }
      ],
      "name": "verifyCertificate",
      "outputs": [
        {
          "internalType": "string",
          "name": "ipfsHash",
          "type": "string"
        },
        {
          "internalType": "address",
          "name": "institution",
          "type": "address"
        },
        {
          "internalType": "address",
          "name": "student",
          "type": "address"
        },
        {
          "internalType": "uint256",
          "name": "issueDate",
          "type": "uint256"
        },
        {
          "internalType": "bool",
          "name": "isValid",
          "type": "bool"
        }
      ],
      "stateMutability": "view",
      "type": "function"
    }
  ],
  "bytecode": "0x60806040523480156200001157600080fd5b5033600073ffffffffffffffffffffffffffffffffffffffff168173ffffffffffffffffffffffffffffffffffffffff1603620000885760006040517f1e4fbdf70000000000000000000000000000000000000000000000000000000081526004016200007f919062000201565b60405180910390fd5b6200009981620000f860201b60201c565b506001600260003373ffffffffffffffffffffffffffffffffffffffff1673ffffffffffffffffffffffffffffffffffffffff16815260200190815260200160002060006101000a81548160ff0219169083151502179055506200021e565b60008060009054906101000a900473ffffffffffffffffffffffffffffffffffffffff169050816000806101000a81548173ffffffffffffffffffffffffffffffffffffffff021916908373ffffffffffffffffffffffffffffffffffffffff1602179055508173ffffffffffffffffffffffffffffffffffffffff168173ffffffffffffffffffffffffffffffffffffffff167f8be0079c531659141344cd1fd0a4f28419497f9722a3daafe3b4186f6b6457e060405160405180910390a35050565b600073ffffffffffffffffffffffffffffffffffffffff82169050919050565b6000620001e982620001bc565b9050919050565b620001fb81620001dc565b82525050565b6000602082019050620002186000830184620001f0565b92915050565b611635806200022e6000396000f3fe608060405234801561001057600080fd5b506004361061009e5760003560e01c8063852df60511610066578063852df605146101615780638da5cb5b1461017d578063bd4d8bcb1461019b578063c6cbc52a146101b7578063f2fde38b146101d35761009e565b806316b784fe146100a35780633d263b6b146100d3578063715018a6146100ef578063742f0688146100f9578063850c17681461012d575b600080fd5b6100bd60048036038101906100b89190610d6c565b6101ef565b6040516100ca9190610db4565b60405180910390f35b6100ed60048036038101906100e89190610d6c565b61020f565b005b6100f76102b5565b005b610113600480360381019061010e9190610e05565b6102c9565b604051610124959493929190610eea565b60405180910390f35b61014760048036038101906101429190610e05565b6103d4565b604051610158959493929190610eea565b60405180910390f35b61017b60048036038101906101769190611079565b61058e565b005b610185610823565b60405161019291906110e8565b60405180910390f35b6101b560048036038101906101b09190610d6c565b61084c565b005b6101d160048036038101906101cc9190610e05565b6108f2565b005b6101ed60048036038101906101e89190610d6c565b610b21565b005b60026020528060005260406000206000915054906101000a900460ff1681565b610217610ba7565b6000600260008373ffffffffffffffffffffffffffffffffffffffff1673ffffffffffffffffffffffffffffffffffffffff16815260200190815260200160002060006101000a81548160ff0219169083151502179055508073ffffffffffffffffffffffffffffffffffffffff167ff140c8430738a3839a97c417f51012dd53945be61f6ae85e8e395dfba78089c560405160405180910390a250565b6102bd610ba7565b6102c76000610c2e565b565b60016020528060005260406000206000915090508060000180546102ec90611132565b80601f016020809104026020016040519081016040528092919081815260200182805461031890611132565b80156103655780601f1061033a57610100808354040283529160200191610365565b820191906000526020600020905b81548152906001019060200180831161034857829003601f168201915b5050505050908060010160009054906101000a900473ffffffffffffffffffffffffffffffffffffffff16908060020160009054906101000a900473ffffffffffffffffffffffffffffffffffffffff16908060030154908060040160009054906101000a900460ff16905085565b60606000806000806000600160008881526020019081526020016000206040518060a001604052908160008201805461040c90611132565b80601f016020809104026020016040519081016040528092919081815260200182805461043890611132565b80156104855780601f1061045a57610100808354040283529160200191610485565b820191906000526020600020905b81548152906001019060200180831161046857829003601f168201915b505050505081526020016001820160009054906101000a900473ffffffffffffffffffffffffffffffffffffffff1673ffffffffffffffffffffffffffffffffffffffff1673ffffffffffffffffffffffffffffffffffffffff1681526020016002820160009054906101000a900473ffffffffffffffffffffffffffffffffffffffff1673ffffffffffffffffffffffffffffffffffffffff1673ffffffffffffffffffffffffffffffffffffffff168152602001600382015481526020016004820160009054906101000a900460ff161515151581525050905080600001518160200151826040015183606001518460800151955095509550955095505091939590929450565b600260003373ffffffffffffffffffffffffffffffffffffffff1673ffffffffffffffffffffffffffffffffffffffff16815260200190815260200160002060009054906101000a900460ff1661061a576040517f08c379a0000000000000000000000000000000000000000000000000000000008152600401610611906111af565b60405180910390fd5b6001600084815260200190815260200160002060040160009054906101000a900460ff161561067e576040517f08c379a00000000000000000000000000000000000000000000000000000000081526004016106759061121b565b60405180910390fd5b6040518060a001604052808381526020013373ffffffffffffffffffffffffffffffffffffffff1681526020018273ffffffffffffffffffffffffffffffffffffffff168152602001428152602001600115158152506001600085815260200190815260200160002060008201518160000190816106fc91906113e7565b5060208201518160010160006101000a81548173ffffffffffffffffffffffffffffffffffffffff021916908373ffffffffffffffffffffffffffffffffffffffff16021790555060408201518160020160006101000a81548173ffffffffffffffffffffffffffffffffffffffff021916908373ffffffffffffffffffffffffffffffffffffffff1602179055506060820151816003015560808201518160040160006101000a81548160ff0219169083151502179055509050508073ffffffffffffffffffffffffffffffffffffffff163373ffffffffffffffffffffffffffffffffffffffff16847f2aff01980f9862a741db6824a1dfa9278fd13a19fe1fc8ec29db81b65a8300198560405161081691906114b9565b60405180910390a4505050565b60008060009054906101000a900473ffffffffffffffffffffffffffffffffffffffff16905090565b610854610ba7565b6001600260008373ffffffffffffffffffffffffffffffffffffffff1673ffffffffffffffffffffffffffffffffffffffff16815260200190815260200160002060006101000a81548160ff0219169083151502179055508073ffffffffffffffffffffffffffffffffffffffff167f2aef8a157b05c49aaaeebd094bf2b10b2b90835af1fd87c288f6effa9a6a243460405160405180910390a250565b600260003373ffffffffffffffffffffffffffffffffffffffff1673ffffffffffffffffffffffffffffffffffffffff16815260200190815260200160002060009054906101000a900460ff1661097e576040517f08c379a0000000000000000000000000000000000000000000000000000000008152600401610975906111af565b60405180910390fd5b6001600082815260200190815260200160002060040160009054906101000a900460ff166109e1576040517f08c379a00000000000000000000000000000000000000000000000000000000081526004016109d89061154d565b60405180910390fd5b3373ffffffffffffffffffffffffffffffffffffffff166001600083815260200190815260200160002060010160009054906101000a900473ffffffffffffffffffffffffffffffffffffffff1673ffffffffffffffffffffffffffffffffffffffff161480610a835750610a54610823565b73ffffffffffffffffffffffffffffffffffffffff163373ffffffffffffffffffffffffffffffffffffffff16145b610ac2576040517f08c379a0000000000000000000000000000000000000000000000000000000008152600401610ab9906115df565b60405180910390fd5b60006001600083815260200190815260200160002060040160006101000a81548160ff021916908315150217905550807f44d80a438cb4fa3b5aedbe551ce3d9382e37f446917b783e1dee70a03b4180e360405160405180910390a250565b610b29610ba7565b600073ffffffffffffffffffffffffffffffffffffffff168173ffffffffffffffffffffffffffffffffffffffff1603610b9b5760006040517f1e4fbdf7000000000000000000000000000000000000000000000000000000008152600401610b9291906110e8565b60405180910390fd5b610ba481610c2e565b50565b610baf610cf2565b73ffffffffffffffffffffffffffffffffffffffff16610bcd610823565b73ffffffffffffffffffffffffffffffffffffffff1614610c2c57610bf0610cf2565b6040517f118cdaa7000000000000000000000000000000000000000000000000000000008152600401610c2391906110e8565b60405180910390fd5b565b60008060009054906101000a900473ffffffffffffffffffffffffffffffffffffffff169050816000806101000a81548173ffffffffffffffffffffffffffffffffffffffff021916908373ffffffffffffffffffffffffffffffffffffffff1602179055508173ffffffffffffffffffffffffffffffffffffffff168173ffffffffffffffffffffffffffffffffffffffff167f8be0079c531659141344cd1fd0a4f28419497f9722a3daafe3b4186f6b6457e060405160405180910390a35050565b600033905090565b6000604051905090565b600080fd5b600080fd5b600073ffffffffffffffffffffffffffffffffffffffff82169050919050565b6000610d3982610d0e565b9050919050565b610d4981610d2e565b8114610d5457600080fd5b50565b600081359050610d6681610d40565b92915050565b600060208284031215610d8257610d81610d04565b5b6000610d9084828501610d57565b91505092915050565b60008115159050919050565b610dae81610d99565b82525050565b6000602082019050610dc96000830184610da5565b92915050565b6000819050919050565b610de281610dcf565b8114610ded57600080fd5b50565b600081359050610dff81610dd9565b92915050565b600060208284031215610e1b57610e1a610d04565b5b6000610e2984828501610df0565b91505092915050565b600081519050919050565b600082825260208201905092915050565b60005b83811015610e6c578082015181840152602081019050610e51565b60008484015250505050565b6000601f19601f8301169050919050565b6000610e9482610e32565b610e9e8185610e3d565b9350610eae818560208601610e4e565b610eb781610e78565b840191505092915050565b610ecb81610d2e565b82525050565b6000819050919050565b610ee481610ed1565b82525050565b600060a0820190508181036000830152610f048188610e89565b9050610f136020830187610ec2565b610f206040830186610ec2565b610f2d6060830185610edb565b610f3a6080830184610da5565b9695505050505050565b600080fd5b600080fd5b7f4e487b7100000000000000000000000000000000000000000000000000000000600052604160045260246000fd5b610f8682610e78565b810181811067ffffffffffffffff82111715610fa557610fa4610f4e565b5b80604052505050565b6000610fb8610cfa565b9050610fc48282610f7d565b919050565b600067ffffffffffffffff821115610fe457610fe3610f4e565b5b610fed82610e78565b9050602081019050919050565b82818337600083830152505050565b600061101c61101784610fc9565b610fae565b90508281526020810184848401111561103857611037610f49565b5b611043848285610ffa565b509392505050565b600082601f8301126110605761105f610f44565b5b8135611070848260208601611009565b91505092915050565b60008060006060848603121561109257611091610d04565b5b60006110a086828701610df0565b935050602084013567ffffffffffffffff8111156110c1576110c0610d09565b5b6110cd8682870161104b565b92505060406110de86828701610d57565b9150509250925092565b60006020820190506110fd6000830184610ec2565b92915050565b7f4e487b7100000000000000000000000000000000000000000000000000000000600052602260045260246000fd5b6000600282049050600182168061114a57607f821691505b60208210810361115d5761115c611103565b5b50919050565b7f4e6f7420616e20617574686f72697a656420696e737469747574696f6e000000600082015250565b6000611199601d83610e3d565b91506111a482611163565b602082019050919050565b600060208201905081810360008301526111c88161118c565b9050919050565b7f436572746966696361746520616c726561647920657869737473000000000000600082015250565b6000611205601a83610e3d565b9150611210826111cf565b602082019050919050565b60006020820190508181036000830152611234816111f8565b9050919050565b60008190508160005260206000209050919050565b60006020601f8301049050919050565b600082821b905092915050565b60006008830261129d7fffffffffffffffffffffffffffffffffffffffffffffffffffffffffffffffff82611260565b6112a78683611260565b95508019841693508086168417925050509392505050565b6000819050919050565b60006112e46112df6112da84610ed1565b6112bf565b610ed1565b9050919050565b6000819050919050565b6112fe836112c9565b61131261130a826112eb565b84845461126d565b825550505050565b600090565b61132761131a565b6113328184846112f5565b505050565b5b818110156113565761134b60008261131f565b600181019050611338565b5050565b601f82111561139b5761136c8161123b565b61137584611250565b81016020851015611384578190505b61139861139085611250565b830182611337565b50505b505050565b600082821c905092915050565b60006113be600019846008026113a0565b1980831691505092915050565b60006113d783836113ad565b9150826002028217905092915050565b6113f082610e32565b67ffffffffffffffff81111561140957611408610f4e565b5b6114138254611132565b61141e82828561135a565b600060209050601f831160018114611451576000841561143f578287015190505b61144985826113cb565b8655506114b1565b601f19841661145f8661123b565b60005b8281101561148757848901518255600182019150602085019450602081019050611462565b868310156114a457848901516114a0601f8916826113ad565b8355505b6001600288020188555050505b505050505050565b600060208201905081810360008301526114d38184610e89565b905092915050565b7f436572746966696361746520646f6573206e6f74206578697374206f7220697360008201527f20616c7265616479207265766f6b656400000000000000000000000000000000602082015250565b6000611537603083610e3d565b9150611542826114db565b604082019050919050565b600060208201905081810360008301526115668161152a565b9050919050565b7f4e6f7420617574686f72697a656420746f207265766f6b65207468697320636560008201527f7274696669636174650000000000000000000000000000000000000000000000602082015250565b60006115c9602983610e3d565b91506115d48261156d565b604082019050919050565b600060208201905081810360008301526115f8816115bc565b905091905056fea26469706673582212201c607b54d88286c916a3153a8e70020b0adf5c50a046e0f84b9e8e668da3bbd764736f6c63430008140033",
  "linkReferences": {},
  "deployedLinkReferences": {}
}